:020000040800F2
:10000000E8050020D900000815250008F92100089E
:1000100000000000000000000000000000000000E0
:100020000000000000000000000000005F25000844
:1000300000000000000000005D25000861250008A8
:100040000901000809010008090100080901000868
:100050000901000809010008090100080901000858
:10006000090100080901000809010008050C000841
:100070000901000809010008090100080901000838
:10008000090100080000000000000000090100084C
:1000900000000000090100080D2600080901000801
:1000A000000000000901000809010008090100081A
:1000B000992A000800000000510A00080901000800
:1000C0000448854600F080FB00480047FD340008E6
:1000D000C046C046E80500200C4880F308880C485C
:1000E0000168090E0B4A914205D10B480B4901608A
:1000F0000B480C4901600C4880470C480047FEE75C
:10010000FEE7FEE7FEE7FEE7FEE70000E805002069
:10011000040000001F000000181002400100000051
:100120000000014000000000B1250008C1000008E7
:1001300030B50B46014600202022012409E00D467F
:10014000D5409D4205D31D469540491B2546954007
:1001500040191546521E002DF1DC30BD10B5202A85
:1001600004DB0846203AD040002110BD0B46D340A6
:10017000D0402024A21A91400843194610BDD2B2A3
:1001800001E00270401C491EFBD270470022F6E7D6
:1001900010B513460A4604461946FFF7F0FF2046FD
:1001A00010BDF8B502464A40D40F42004B00520839
:1001B0005B089A4202D20246084611464A0023D002
:1001C000C30D4A00DDB2120EAD1A202D35DA4902F8
:1001D0000126490AF6058A19002C00D05242202136
:1001E0004F1B1146B9402A411018C20D9A4221D026
:1001F000002C17D0012D08DCDA05801AD20F8019E7
:10020000D207DBB200F047FAF8BDDA05801A012305
:1002100040001B06C01880185A428018CA0F1043AD
:10022000490007E04908C2071143DA05801A80191E
:100230004008801800F027FAF8BD61000122511A29
:10024000001BF7E70122D2075140AAE70122D2079B
:100250005040A6E7024670B54A40D30FDB07400086
:100260002DD04A002AD0010E140E000212020919E4
:10027000400A520A8418E50104465443000A120A4F
:100280002E045043A4194219200CC543AA18120C7D
:100290000125AD03521C521912047F39240400D0E9
:1002A000521C104301D44000491EC2B20C06C009C2
:1002B0002018401C4008802A02D003E0002070BDB6
:1002C00040084000002900DA0020184370BD70B5D6
:1002D00002464A40D50F40004A00ED074008520848
:1002E000002814D0002A12D0C40DD30D41020120E1
:1002F000C0055202490A520AE41A091812187D343C
:10030000914201D3641C00E04900002C01DA002076
:1003100070BD0023914201D3891A0343400849006C
:100320000028F7D100290AD0914202D10121C90742
:1003300005E0914201D2012101E00121C943E0051C
:10034000C018401900F09FF970BD0000F0B50746D5
:100350000846584087B0C00F049048000E46590028
:1003600040084908BC1A884105D2384631461E4625
:1003700017460B4602465800400810434DD0300D3A
:10038000039040055900400D490D0590401A029018
:10039000402873DA18030121000B09050843019076
:1003A00004980092002806D01146019A4942002084
:1003B000904100910190029840210A1A01990098F9
:1003C00000F03EF905460C466B4607CB00F048F9B5
:1003D000C0197141039A0E0D0023D71756401A46D3
:1003E0007A40164344D0049A002A2DD0029A012A5A
:1003F000039A15DC1205C01A914101263605001C2E
:100400007141D20F059ED2070093019202962A46AF
:10041000234600F086F907B0F0BD38463146FAE7CA
:100420001605234A0F46B218C01AB7410121090523
:10043000001C4F4100187F41114618187941E20F06
:1004400010436D19644113E0E2076D081543640819
:10045000C2071443039A01261205C01A91413605BA
:10046000001C7141CE07400830434908C018514173
:100470002A46234600F048F9CDE7FFE70498012219
:100480004000C117121A00238B4104983146C4174B
:10049000381AA141EEE730B40124E407634030BCD0
:1004A00054E730B40124E407614030BC4EE700005B
:1004B0000000E0FFF0B51FB488B00B990998002444
:1004C00048400999C00F490049080991C0070B9994
:1004D0000090490049080B9109990898A6460843DD
:1004E0001CD00B990A98084318D0099801244000A1
:1004F000420D4800410D099824050003000B2043DC
:1005000009900B980003000B20430B9050181C49D6
:100510004018002201901446104605E000200146D4
:100520000DB0F0BD032801DA034600E003239C462A
:10053000C11A0AAE0AE05F0008ADED5B4F00F75B41
:100540007D430027AA187C41491C5B1E6145F2DDF2
:10055000410004AB5A522104120C0A43240C401CE3
:100560000828DFDB01980290009970460191009005
:10057000059B049A0799069800F0D3F8D0E700008D
:100580000DFCFFFFC217C10F504010B54018CA073D
:100590009623002100F07FF810BD00000EB505493C
:1005A0000291002100910A460B46019100F0B9F832
:1005B00003B000BD33040000410040020122400AA4
:1005C000D205090E80187F2901DA0020704796298C
:1005D00003DC9622511AC84070479639884070470C
:1005E000C20FD207400040080BD0C10D0723DB012A
:1005F000C91840020905400A1143C20840071143C7
:100600007047002001467047CB0FDB07490010B54B
:10061000490802460A4307D00A0D07240903E401EA
:10062000090B121B002A01DC002010BDC900440F79
:100630000C43C100E018D205801800F024F810BD6A
:1006400010B5202A04DB0146203A9140002010BD5D
:10065000914020239C1A0346E3401943904010BD6B
:1006600010B5202A06DBCB170846203A1041C117E7
:100670000B4306E00B461341D0402024A21A9140C0
:100680000843194610BD002904DA401C490001D175
:1006900040084000704770B40024050C05D11024B8
:1006A000000402D1002921D01124050E01D100023D
:1006B0000834050F01D10001241D850F01D18000F0
:1006C000A41C002801DB4000641C002908D0202560
:1006D0002E1B0D46F540A14000D0012129430843BF
:1006E00001061B1B000ADB1D02D5002070BC7047F1
:1006F000DB05181880180029F8DA401C4900F5D1EC
:1007000070BC40084000704710B5002B08DA002488
:10071000401C614192185B411A4301D140084000DE
:1007200010BDF0B51FB482B005460C0003D00846DA
:1007300002F0BAF902E002F0B7F920300246009068
:1007400021462846FFF77CFF049B059A04460F4686
:1007500018431143084314D0184610431BD0009887
:1007600040210A1A18460599FFF7F8FC05460E467F
:10077000009A05990498FFF763FF084305D001200C
:1007800004E02046394607B0F0BD0020C1170543FC
:100790000E432C43374300990E986305401A7905A0
:1007A000E40A00220C43FD0A0A3002D5002001466B
:1007B000E9E70105101969410C9C0D9D001969417B
:1007C000FFF7A2FFDFE70000064C0125064E05E01B
:1007D000E36807CC2B430C3C98471034B442F7D362
:1007E000FFF772FC5837000878370008F0B50C4660
:1007F0005C4085B0E40FE40703944C0000266408D5
:1008000059009446490802460296224321D0624686
:100810000A431ED06200570D4A000E032303550DF4
:10082000012402462C492405781B1B0B360B40186B
:1008300023432643614600901C46501AB44103D31B
:100840000098401C009002E0921800985B4100283C
:1008500003DA0020014605B0F0BD002001210905A2
:100860000746864611E064461D46141BB54106D373
:100870006546521BB341744607430C43A646CD0759
:1008800040084908284392185B4105460D43EAD1C8
:100890001046184313D06046194650407140084333
:1008A00006D06046101AB34106D20122002306E0AA
:1008B00000220123DB0702E00122D24353100098FB
:1008C00074460105381C6141029C039D0019694171
:1008D000FFF71AFFBFE70000FD03000070B54B00F3
:1008E0005B0803430BD04B005C0D0026334665428A
:1008F000B341D417AD1AA34102DB0020014670BDFD
:1009000012053018514170BD0EB5C217C10F5040CD
:10091000CA0740180021054B0293019200910A4634
:100920000B46FFF7FEFE03B000BD000033040000DD
:1009300070B5CD0F4A0009030123090B1B051943AC
:100940000B4BED070024520D9A4201DA002070BDD6
:10095000074B34339A4203DC9A1AFFF7FFFB02E09D
:100960000449511888402C43F1D0404270BD00002A
:10097000FF030000CDFBFFFF014904200870704712
:100980000400002001490520087070470400002081
:100990000149032008707047040000200149042029
:1009A00048707047040000200149052048707047D6
:1009B0000400002001490320487070470400002013
:1009C00010B5002219491A4802F0E2FC184800222A
:1009D0001849283002F0DCFC174A0321144802F0C1
:1009E000F9FB164A0421124802F0F4FB144A0521CF
:1009F0000F4802F0EFFB0E48124A0321283002F0A4
:100A0000E9FB0B48104A0421283002F0E3FB0848B8
:100A10000E4A0521283002F0DDFB054802F0D2FC29
:100A20000348283002F0CEFC10BD0000FD35000860
:100A3000340000200D3600089109000879090008EB
:100A400085090008B50900089D090008A9090008E2
:100A500010B5024800F05EFA10BD000084000020CE
:100A60001CB50BA206CA01920091012805D00228EC
:100A700005D003280AD1FE2002E0FC2000E0FD2082
:100A80006946C8710821684600F0A6F81CBD000040
:100A9000FFFFFFFFFFFFFF0000B58BB000210391B8
:100AA0000591069107910120049100910191029115
:100AB000099108906946064800F043F9044800F09F
:100AC00016FC0221024800F0BCF80BB000BD00008B
:100AD00084000020FFB583B00C46374F0C99B84214
:100AE00001D3384603E0354DA84200DB2846344D9B
:100AF000AC4201D32C4603E0324EB44200DB344614
:100B00000126F6050494B24201DA002203E02E4CDD
:100B1000A24200DB22460592B34201DA002403E040
:100B20002A4CA34200DA1C46294EB14201D3314679
:100B300003E0284A914200DB11460C9110231F4A22
:100B4000394602F0ABFC07460C231E4A294604989E
:100B500002F0A4FC02900C231B4A0021059802F02D
:100B60009DFC05460C23194A0021204602F096FC04
:100B700004460C23174A31460C9802F08FFC0246BB
:100B8000380A694608704F70029800098870029808
:100B9000290A000108436946C8700D71200948718F
:100BA0002001110A084369468871CA710821684604
:100BB00000F012F807B0F0BD0000BFC20000BF4255
:100BC000000034C2000034420000FA430000A0409C
:100BD000000090C10000904100B587B000280DD002
:100BE00000290BD00122009200220292039204916C
:100BF000024606AB6946024800F036F807B000BD71
:100C00008400002010B5034800F0C8FB024800F043
:100C1000C5FB10BDA00100205C01002010B50446FA
:100C20000068054940181421FFF782FA800020640B
:100C30000248E06310BD0000F8FFFDBF0000024065
:100C400070472022125C012A08D0022A06D0416A8D
:100C500001229204114341620120704700684269F9
:100C60000A43426100207047F0B52024255C0468E7
:100C7000A468012D05D0022D03D0416A01229204FF
:100C80005BE02501AD0F01D1E50053D5A401A40F10
:100C9000022C03D9416A0122D2054EE001252E46DD
:100CA000A6401E608B68002B14D0CE6833434E687C
:100CB000F60033432601FF3607688136BB51230116
:100CC0001C46FF3407680E6985343E51097D0129B1
:100CD00004D009E00B88CE685B05EAE701680E598D
:100CE000FF2701373E430E51D47911792406214361
:100CF0009479567924043602344321431C46FF3448
:100D000006688D343151D4781178240621439478C3
:100D1000527824041202144321431A46FF32046815
:100D20008932A1500068FF338133C1582943C15033
:100D30000020F0BD416A01225205114341620120A9
:100D4000F0BD30B52022125C0368012A08D0022AC7
:100D500006D0416A0122920411434162012030BD54
:100D6000DA1DFF32FA3214680120044314600C7D4E
:100D7000E406E40EA040D4698443D461CC69002C1D
:100D80001AD1D4688443D4608C898D882404ADB290
:100D90002C434D69ED00ED18FF35FF3502352C640D
:100DA0000C890D882404ADB22C434D69ED00ED187B
:100DB000FF35FF3502356C64CC69012C1AD1D4683B
:100DC0000443D4600C888D882404ADB22C434D6953
:100DD000ED00ED18FF35FF3502352C640C898D8947
:100DE0002404ADB22C434D69ED00EB18FF33FF3303
:100DF00002335C648B69002B53680BD00343536050
:100E00000B69002B536907D003435361096A012919
:100E100004D006E08343F2E78343F6E7D169014358
:100E2000D1611068400840001060002030BD70475C
:100E3000F0B52024245C012C06D0022C04D0416A99
:100E40000122920411435BE0012464050568002936
:100E500052D02D69AD0751D00C012546FF350668EB
:100E6000B135765904273E409660066876594AD0D7
:100E7000F608566006687559AD07ED0FD560254632
:100E8000FF350668B53576593607360F16610668A0
:100E900076593604360E9661066875592D0C5561E3
:100EA0002246FF320568B932AD581D700568AD584D
:100EB0002D0A5D700568AD582D0C9D700568AA5807
:100EC000FF34120EDA700268BD3412591A710268CA
:100ED0001259120A5A7102681259120C9A71026858
:100EE0001259120EDA712022006800290ED0016911
:100EF000114301610020F0BDED68ABE7416A214379
:100F000041620120F0BD760D1660B3E7C168114360
:100F1000C160EFE7F0B50546006885B0466900247A
:100F2000416801918768C1680391016902918169F3
:100F30000091F10748D0F90714D001218160B8076A
:100F400003D5284600F000FA0CE0780702D501240A
:100F5000E40207E0380702D50124240302E0284612
:100F600000F0F1F9F80517D5FF20296801308860F5
:100F7000B80503D5284600F0E9F90DE0780502D55B
:100F80000120400303E0380503D50120800304431A
:100F900002E0284600F0D9F9F80315D501202968A8
:100FA00000048860B90303D5284600F0D1F90BE0AE
:100FB000790302D50120C00301E0390301D50443C0
:100FC00002E0284600F0C3F930071027002806DAAF
:100FD0000398C00603D5780104432868C7607007EA
:100FE00008D50398000705D529680820C860284659
:100FF00000F04CF9B00706D52868C068800702D019
:10100000284600F045F9700607D50298C00604D5B9
:1010100001208002044328680761B00608D50298C1
:10102000000705D5296808200861284600F05CF90A
:10103000F00606D528680069800702D0284600F02F
:1010400054F9B00307D50198C00604D52868476055
:10105000284600F04BF9F00308D50198000705D5A4
:10106000296808204860284600F073F930043CD510
:10107000019841070420002935DAF10504D50099CB
:10108000C90701D001210C43B10504D50099890796
:1010900001D502210C43710503D50099490700D5FC
:1010A000044331051FD500994906490F1BD0009A0A
:1010B00070210A40402A11D006DC102A09D0202ACB
:1010C00009D0302A0BD108E0502A18D0602A06D166
:1010D00017E0082202E03C4301E0202214432A6882
:1010E00093698B43936129684860002C05D0686A36
:1010F000204368622846FFF79AFE05B0F0BD8022C3
:10110000ECE7FF220132E9E7F8B5040005D02546F7
:1011100020352878002802D004E00120F8BD2046C0
:1011200000F07AF82068016802229143016000F023
:101130006BFA012706467F0404E000F065FA801B85
:101140000A2811D8206840688007F6D42068016812
:1011500001221143016000F057FA06460AE000F050
:1011600053FA801B0A2805D9606A3843606205205B
:101170002870D2E720684068C007F0D0217E802028
:10118000012921680A683BD082430A60617E4020C1
:10119000012921680A6835D082430A60A17E202097
:1011A000012921680A682FD082430A60E17E10205D
:1011B000012921680A6829D002430A60217F08209A
:1011C000012921680A6823D082430A60617F0420D4
:1011D000012921680A681DD082430A60E168A0687D
:1011E000626908432169114308436168491E084345
:1011F0002168C86100206062012028700020F8BDCD
:101200000243C2E70243C8E70243CEE78243D4E782
:101210000243DAE70243E0E710B586B00446142142
:101220006846FEF7B3FF17492068884227D1164861
:10123000C269012149060A43C261C2690A40059296
:10124000426909120A43426140690840059003203F
:10125000C002009002200190002002900320039021
:101260000420049009206946C00600F01FF90022FE
:1012700011461E2000F01CFA1E2000F00FFA06B0E6
:1012800010BD0000006400400010024070470000E4
:1012900070B58AB06B4602AA0021FFF7C9FD684607
:1012A0000078012815D16946C87809790001090933
:1012B0000843094C094D0A4EFFF764F92946FEF729
:1012C000C9FF3146FFF703F82146FEF76AFF0549DB
:1012D00008600AB070BD0000000034C20000B442D3
:1012E00000F07F451400002070477047704770B5CC
:1012F0000546044620352878012805D0606A01217A
:10130000C9040843606216E0022028702068016862
:1013100049084900016000F077F906460DE000F049
:1013200073F9801B0A2808D9606A0121490408431F
:10133000606205202870012070BD20684068C007E9
:10134000EDD1606270BD704770477047704770475D
:101350007047704770B50024014620314A78022A50
:1013600003D004218163012416E0026813680E256E
:10137000AB431360026813685B085B0013600122D3
:10138000056C1346AB40C56B6B604A7000220A7057
:10139000416B002900D08847204670BDF0B4C16B76
:1013A0000D6801680C680422066C1346B3402B429A
:1013B0000DD063070BD50B689B0602D40B689343D3
:1013C0000B60016C8A40C16B4A60C16A19E0022758
:1013D000B74002462F4001232032002F15D0A70727
:1013E00013D50C68A40604D40C680A25AC430C6021
:1013F0005370036C02219940C36B59600021117036
:10140000816A002916D0F0BC08470827B7402F4250
:1014100010D024070ED50C680E25AC430C60046C6C
:101420001946A140C46B6160836353700021117041
:10143000016BE6E7F0BC704770B5040024D00220D1
:10144000214620310D464870226811680F48A36874
:101450000140606826691843E368334318436369B1
:101460001843A3691843E3691843084310602046F2
:10147000FFF7D4FB0020A062E06220636063A063FA
:1014800001216970287070BD012070BD0FC0FFFF81
:1014900031B500F0B9F8009C0546601C00D0641C12
:1014A00000F0B2F8401BA042FAD338BDF8B50023D3
:1014B00089E001249C402A46A44622407ED04C6804
:1014C000022C01D0122C0CD1DC08A40027183C6A95
:1014D0005D07ED0E0F26AE40B4430E69AE402643C5
:1014E0003E6205685E000324B4400F79A543BF0740
:1014F000BF0FB7402F4307604D68012D05D0022D67
:1015000003D0112D01D0122D0ED18568CF68A543CF
:10151000B7402F43876047686546AF430D79ED06B6
:10152000ED0F9D403D434560C568A5438C68B440C0
:101530002C43C4604C68E40044D5264CA5690126C0
:101540003543A561A4699D0834400094224CAD0048
:101550002F19BC689D072E0F0F25B540AC430925F8
:10156000ED06A84201D100250AE01C4DA84201D198
:10157000012505E01A4DA84201D1022500E005250C
:10158000B5402543BD60174C25684E689543F6036A
:1015900000D51543256065684E689543B60300D5B0
:1015A00015436560A5684E689543F60200D515435E
:1015B000A560E5684E689543B60200E002E000D5FC
:1015C0001543E5605B1C0A681546DA4000D070E7F9
:1015D000F8BD000000100240000001400004004877
:1015E00000080048000401400069084000D00120C4
:1015F000704742694A4042617047002A01D08161C8
:101600007047816270470000014800687047000021
:101610002800002002480168491C01607047000052
:101620002800002010B5064801681022114301600F
:10163000002000F007F800F017F8002010BD0000AF
:101640000020024010B5044600F0E0F87D21C900FA
:10165000FEF76EFD00F020FB00222146501E00F038
:1016600027F8002010BD000008B50A488169012252
:1016700011438161816911400091C26901040A43EB
:10168000C261C069084000900348016810221143FC
:10169000016008BD0010024000000140C106C90EF3
:1016A00001208840014908607047000000E100E027
:1016B00010B500F031FF10BDF8B505464E480E4696
:1016C0000068C007C00FB0420AD24B480168490801
:1016D0004900314301600068C007C00FB04270D1BB
:1016E0002878464C800705D56068F0218843A968B2
:1016F000084360602878C00753D06868012817D075
:10170000022818D0032819D021688907002958DA3F
:1017100061688908890001436160FFF775FF6968A6
:101720000746012913D002291DD0032927D034E010
:1017300021688903EAE721688901E7E7616BC9034A
:10174000E4E7FFF761FFC11B2D48814223D86068A1
:101750000007800F0128F4D123E0FFF755FFC11BDC
:101760002748814217D860680007800F0228F4D10B
:1017700017E0FFF749FFC11B214881420BD8606881
:101780000007800F0328F4D10BE0FFF73DFFC11BDA
:101790001B48814201D90320F8BD60680007800F13
:1017A000F3D115480168C907C90FB1420BD90168C7
:1017B00049084900314301600068C007C00FB042CA
:1017C00001D00120F8BD2878400706D560680721C0
:1017D00009028843E9680843606000F02DF86168F9
:1017E000084A0906090F515CC840074908600020F3
:1017F000FFF728FF0020F8BD002002400010024043
:10180000881300001A3600082C00002001480068E8
:10181000704700002C000020044805490068496812
:10182000044A4905490F515CC84070472C0000200C
:10183000001002402A36000830B516A30FCB89B03D
:101840006C460FC417A30FCB0FC41A494A680C206B
:10185000144604401848042C05D0184B082C04D01A
:101860000C2C00D1184609B030BD9402240F6D46EF
:101870002C5DC96A04AD0907090FD203695C920F98
:10188000022A02D0032A00D11846FEF751FC604319
:10189000E9E7000002030405060708090A0B0C0D1E
:1018A0000E0F10100102030405060708090A0B0CAD
:1018B0000D0E0F100010024000127A00006CDC02C6
:1018C000FEB504460078F04EF04DC00748D0686879
:1018D0000007800F01281FD068680007800F0228CA
:1018E00004D16868C003800F022815D061680129FF
:1018F00019D001208004002901D0052917D02968BA
:10190000B1432960296881432960606800281BD0A1
:10191000FFF77AFE074613E02868800320D5606849
:10192000002876D01CE0286830432860EDE729685D
:1019300001432960F7E7FFF767FEC01B642869D8F9
:1019400028688003F7D50BE0FFF75EFE074604E04A
:10195000FFF75AFEC01B6428F1D828688003F7D42B
:10196000207880073ED568680007800F14D068682B
:101970000007800F022804D16868C003800F012887
:101980000AD0E068002828681DD00121084328609B
:10199000FFF73AFE07460BE0286880070BD5E068A2
:1019A000012836D107E0FFF72FFEC01B0228C6D85A
:1019B00028688007F7D52868F82188432169C9007D
:1019C000084328600EE0400840002860FFF71CFE36
:1019D000074604E0FFF718FEC01B0228AFD82868AE
:1019E0008007F7D42078000724D5E0690028686ACA
:1019F00011D0012108436862FFF706FE074604E0A4
:101A0000FFF702FEC01B022899D8686A8007F7D545
:101A100010E036E1D1E0400840006862FFF7F4FDD5
:101A2000074604E0FFF7F0FDC01B022887D8686A6C
:101A30008007F7D4207804274007002861DA0020C7
:101A40000190E869C00008D4E969B8060143E9617A
:101A5000E96901400120009101908D480168C905A4
:101A600011D40168821511430160FFF7CDFD00908C
:101A700005E0FFF7C9FD0099401A642897D884480B
:101A80000068C005F5D5A06801280AD0002801D05B
:101A9000052811D0286A400840002862286AB84307
:101AA00002E0286A012108432862A068002812D0B9
:101AB000FFF7AAFD00900AE0286A38432862F0E7A1
:101AC000FFF7A2FD0099411A7248814275D8286A31
:101AD0008007F5D50DE0FFF797FD009006E0FFF7D2
:101AE00093FD0099411A6B48814266D8286A8007A5
:101AF000F5D40198002804D0E9690120000781434A
:101B0000E9612078C00635D5606901280CD0401DF8
:101B1000686B24D038436863686B40084000686392
:101B2000FFF772FD074622E0686B38436863686B15
:101B3000012108436863FFF767FD074604E0FFF7EC
:101B400063FDC01B022838D8686B8007F7D5686B27
:101B5000F8218843A169C900084368630AE0B843D3
:101B60006863F4E7FFF750FDC01B022825D8686BB7
:101B70008007F7D42078800637D568680007800F83
:101B8000032813D068680007800F022804D1686812
:101B9000C003800F032809D0206A0028686B16D084
:101BA00030436863FFF730FD06460CE0686BC00306
:101BB0001BD5206A012864D117E05BE0FFF724FD04
:101BC000801B022856D8686BC003F7D50DE0B043E0
:101BD0006863FFF719FD064604E0FFF715FD801B5B
:101BE000022847D8686BC003F7D4606A002846D043
:101BF00069680907890F022943D0012636060228A1
:101C0000286805D0B0432860FFF7FEFC044633E0A7
:101C1000B0432860FFF7F8FC074604E0FFF7F4FC48
:101C2000C01B022826D828688001F7D4E86A216BF7
:101C3000000900010843E862A16AE06A0843696894
:101C40007B22D203914308436860286830432860B0
:101C5000FFF7DAFC044604E0FFF7D6FC001B02287D
:101C600008D828688001F7D509E0FFF7CDFC001BF4
:101C7000022801D90320FEBD28688001F5D4002088
:101C8000FEBD0120FEBD000000000100001002406A
:101C90000070004088130000094910B5401E8842BA
:101CA00001D9012010BD074C60610321081F00F01D
:101CB00033FC0020A06107202061002010BD00003F
:101CC000FFFFFF0000E000E07047704770B50400C0
:101CD00005D025462035687F002802D006E0012087
:101CE00070BD00202877204600F00AF802206877AF
:101CF000211D206800F094FC01206877002070BD51
:101D000008B500680A49884210D10A488269012151
:101D100089040A43826180690022084000901146CC
:101D20001620FFF7C5FC1620FFF7B8FC08BD000021
:101D300000480140001002400268D36801210B43B3
:101D4000D360006802680A43026000207047704751
:101D500070B50446006801690025C9438907002958
:101D600015DBC168C943890711D4E91E016101204F
:101D70002077206880698007204602D0FFF7E7FFC0
:101D800004E000F096F8204600F094F825772068EB
:101D90000169C943490717D4C168C943490713D426
:101DA0000421C943016102202077206880698005F1
:101DB000800F204602D0FFF7CAFF04E000F079F858
:101DC000204600F077F8257720680169C9430907A4
:101DD00016D4C168C943090712D40821C943016157
:101DE000042020772068C0698007204602D0FFF7D2
:101DF000AEFF04E000F05DF8204600F05BF82577C8
:101E000020680169C943C90617D4C168C943C90616
:101E100013D41021C9430161082020772068C069CC
:101E20008005800F204602D0FFF791FF04E000F00C
:101E300040F8204600F03EF8257720680169C94344
:101E4000C90708D1C168C943C90704D1891E016106
:101E5000204600F030F820680169C943090609D41A
:101E6000C168C943090605D48021C94301612046E0
:101E7000FFF72AFF20680169C943490609D4C168F0
:101E8000C943490605D44021C9430161204600F0F9
:101E900013F820680169C943890609D4C168C94398
:101EA000890605D42021C94301612046FFF70DFFB3
:101EB00070BD7047704770477047704770470000AB
:101EC000F8B503680446D869196805072D0F07D1CE
:101ED000820605D58A0603D5204600F0A3FCF8BD8E
:101EE0009A68002D64D0D507ED0FFF2621360E40ED
:101EF0002E435DD0C60706D0CE0504D501261E624E
:101F0000E36E3343E366870702230426002F06DAD5
:101F1000D70704D027683B62E76E3743E766470779
:101F200006D5D20704D022681662E26E1A43E26632
:101F3000020709D520220A402A4305D02368082237
:101F40001A62E36E1343E366E26E002AC7D080068E
:101F500004D5880602D5204600F064FCE06E000738
:101F600003D42068806840061CD5204600F03EFC63
:101F700020688168490611D58168402291438160BB
:101F8000606E00280AD01A494163606EFFF7E2F9DB
:101F90000028A4D0606E416B8847F8BD2046FFF74B
:101FA0008DFFF8BD2046FFF789FF0020E066F8BDF1
:101FB000C5020DD552020BD5012000051862202163
:101FC00020466030417281722046FFF776FFF8BDEF
:101FD000020605D50A0603D5204600F0F9FCF8BD37
:101FE0004006FCD54806FAD5204600F00EFCF8BDA8
:101FF000D927000870B5040005D025466035687AF9
:10200000002802D006E0012070BD00202872204682
:1020100000F026F824206872206801684908490009
:102020000160204600F03CFC0128EDD0606A0028E9
:1020300002D0204600F036FB206841680922D20217
:1020400091434160206881682A2291438160206821
:102050000168012211430160204600F089FB70BD38
:10206000F0B587B0064614216846FEF78FF82B4975
:10207000306888424FD12A48C269012149040A4385
:10208000C261C2690A40059242690A4342614069DD
:102090000024084005900C200090022001900320AD
:1020A000039001200490092002946946C006FFF7BE
:1020B000FDF91C481C4D802711C52C60AC60EC60FC
:1020C0006F6020206C6128611748083DFFF7B4F964
:1020D000002801D0FEF7B4FD75666E62124D1148FE
:1020E0004435143828601020291D91C12C616C6181
:1020F000AC612846EC61FFF79FF9002801D0FEF79C
:102100009FFD3566002211461C206E62FFF7D0FA53
:102110001C20FFF7C3FA07B0F0BD000000440040E8
:1021200000100240580002405C0100207047FFB5DB
:10213000064604466036707A83B00D46202858D192
:10214000002D0CD00598002809D00120A1680003BB
:10215000814207D12069002804D1E80702D001207C
:1021600007B0F0BD307A012843D001203072002042
:10217000E06621207072FFF747FA0190274640374A
:10218000059838820598788218E0788A401E78820F
:1021900006980090002280212046019B00F04BFC15
:1021A000002818D10120A1680003814202D12069D2
:1021B000002812D02168287808856D1C788A0028AC
:1021C000E3D106980090002240212046019B00F0B8
:1021D00032FC002808D00320C2E728882168C00507
:1021E000C00D0885AD1CE9E7202070720020307218
:1021F000B6E70220B4E77047FEE7000070B5FFF7CE
:1022000003FA064D04466868201A322805D30920CF
:102210002021C006FFF7EDF96C6070BD0C000020B6
:1022200070B5FFF7F1F9064D04462868201A6428B6
:1022300005D309201021C006FFF7DBF92C6070BD23
:102240000C00002010B50F480D49016004214160C9
:10225000002107228160120402610122C16052053F
:1022600042610176012242768276C2760177427718
:10227000FEF74AFF002801D0FEF7E2FC10BD000087
:10228000006400408400002008B50848416901222C
:1022900011434161406910400022009011460B201B
:1022A000FFF706FA0B20FFF7F9F908BD001002400E
:1022B000F0B587B014216846FDF768FF26484269EB
:1022C000012189040A43426142690A400592426938
:1022D00009010A43426142690A4005924269491173
:1022E0000A434261406909260840F606059000222B
:1022F00030213046FFF781F9FF200130174F0325C9
:10230000002400906946019502943846FFF7CEF804
:10231000832000906946019502943046FFF7C6F885
:1023200030200090012001900294694603943046C9
:10233000FFF7BCF8402000900194694602943046B3
:10234000FFF7B4F8022000900194694602943846E1
:10235000FFF7ACF807B0F0BD0010024000040048E1
:1023600010B50A48084901602F21416000218160B1
:102370000161074A4161C2608161FFF7A7FC002843
:1023800001D0FEF75DFC10BD00480140AC0000200C
:102390008813000010B50C480A490160E1210903C7
:1023A000416000218160C16001618161C1610C22D5
:1023B000016242614162FFF71DFE002801D0FEF775
:1023C0003FFC10BD00440040EC000020F8B5FFF7D2
:1023D0001BF9264C2168411A0A2945D32060A068C0
:1023E000401CA060A068FEF7D9F8214A214BFEF7F7
:1023F00061F8FEF709F92049204E054688420ADABD
:10240000FEF7EEF800F0FEFF00223346FEF752F82A
:1024100000221B4B12E018481A4AC0432818904269
:1024200011D22846FDF70EFFFEF7DAF800F0EAFFBA
:1024300000223346FEF73EF80022134BFDF786FFDD
:10244000FEF7E2F8E06011480026854205DD022033
:10245000FEF706FBA6600020F8BD00960C4B0D4A67
:102460000021E068FEF736FB0120F8BD18000020CF
:102470007B14AE47E17A843F0000404000003440C6
:10248000000034C0FFFF7F0000004EC00000C040CD
:10249000CDCC4C3E0000A04038B50120FEF7E0FA5C
:1024A0006420FEF7F5FF00252B462A4629462846DC
:1024B0000095FEF70FFB6420FEF7EAFF0320FEF70E
:1024C000CFFA044CA560FFF79FF82060FFF79CF857
:1024D000606038BD1800002010B50220FEF7C0FA79
:1024E00010BD000008B5FFF78FF808494A68821A46
:1024F0000A2A09D3486006487F21C90500220090B6
:102500000B461046FEF7E6FA012008BD1800002031
:10251000CDCC4C3E704700008307FF22DB0E9A4073
:102520008907090E994000280BDA0007000F0838C8
:10253000830808489B001818C36993430B43C36181
:102540007047830804489B001B1818689043084391
:102550001860704700ED00E000E400E0704770474D
:1025600010B5FFF757F810BD30B591B0342168466B
:10257000FDF70CFE002401200F94109400900190B0
:1025800000040A9000010E9402250B900D94099509
:102590000C946846FFF794F907200D900F940121E1
:1025A0000E9510940DA8FFF787F811B030BD00000C
:1025B000134801680122114301604168114A11402A
:1025C00041600168104A11400160016801229204D3
:1025D0009143016041683F22120491434160C16A06
:1025E00009090901C162016BFF22D43291430163E1
:1025F000416B490849004163002181607047000038
:10260000001002400CB8FF08FFFFF6FE10B50348AB
:10261000FFF79EFB00F0E8FE10BD0000AC000020BC
:10262000F0B502681A4B0124A4071A4D984203D052
:10263000A04201D0A84203D17026B2434E68324373
:10264000154E164F98420AD0A04208D0A84206D094
:10265000134CA04203D0B04201D0B84204D10324AD
:102660002402A243CC6822438024A2434C69224323
:1026700002608A68C2620A688262984203D0B042ED
:1026800001D0B84201D10969016301214161F0BD66
:10269000002C01400004004000440140004801407B
:1026A0000020004010B5818CC90707D001684A6836
:1026B00001235B049A43836A1A434A60818C890729
:1026C00007D501684A6801231B049A43C36A1A4369
:1026D0004A60818C490707D501684A6801239B0439
:1026E0009A43036B1A434A60818C090707D5016836
:1026F0004A680123DB039A43436B1A434A60818C87
:10270000C90607D50268916801231B039943836BAF
:1027100019439160818C890607D501688A68012375
:102720005B039A43C36B1A438A60818C490612D5B6
:1027300003685A6801210905046C8A4322435A60E0
:10274000026C8A4207D10268516803235B059943F2
:10275000436C19435160818C090607D501684A68AA
:102760000123DB04806C9A4302434A6010BD0000E1
:10277000F8B500260446C666FEF746FF054614492E
:10278000206888421DD10068124F000709D5012139
:102790002B46002249052046009700F04CF90028FE
:1027A0000DD12068006840070BD501212B4600227F
:1027B00089052046009700F03EF9002801D003204B
:1027C000F8BD202060346072A07226720020F8BD2F
:1027D00000380140FFFFFF0110B5406A00220146AA
:1027E00040314A834A82FFF769FB10BD01680A68DD
:1027F000FF2321339A430A6001688A685208520015
:102800008A60202160308172704710B501680A68C3
:1028100040239A430A60202269210A54FFF7EBFC07
:10282000002010BD70B50246403203466033948BE1
:102830009D7A0168222D05D088690822104388619D
:10284000022070BD898C012685683603B54202D10D
:102850000569002D0BD02140446D651C4565217034
:10286000518B491E0904090C518307D015E0456DB1
:1028700021402980416D891C4165F1E701680A68A2
:10288000FF242134A2430A6001688A68520852007A
:102890008A6020219972FFF749FC002070BD00007A
:1028A000F8B504462369A268E5691A4363691020F4
:1028B0002B43002125681A432B680E463E4F3B40B0
:1028C00013432B6023685A6803252D03AA43E56848
:1028D0002A435A60236AA26925681A43AB680B270A
:1028E0003F02BB431343AB60344A2568954210D185
:1028F000334A126B9207920F0ED0012A05D0022A9A
:1029000005D0032A09D1022007E0042005E00820B1
:1029100003E02C4A954200D100200122E369D20352
:10292000934224D100280CD002280DD0042813D0C3
:10293000082817D001260A0912010807400F104382
:102940002FE0FEF769FF09E061681F4A4808801818
:10295000FDF7EEFB81B2EEE7FEF76EFF6168400027
:102960004A08F4E76168012248081204EFE70028EA
:1029700008D0022809D004280BD0082814D001263A
:102980003046F8BDFEF748FF05E061680F4A480889
:102990000CE0FEF751FF61684A088018FDF7C8FB9C
:1029A00080B22168C860EBE7616848088018FDF7CD
:1029B000BFFB80B2E860E3E7F369FFEF0038014056
:1029C00000100240004400400024F40000127A008D
:1029D0006921095C212901D002207047024640325A
:1029E000518A002912D0012381681B03994202D128
:1029F0000169002915D0C16C4B1CC36400680978BB
:102A00000185508A401E50820020704701680A6884
:102A100080239A430A6000680168402211430160E4
:102A2000F2E7C16C03680988C905C90D1985C16C35
:102A3000891CC164E5E7FFB581B017460E46044620
:102A40000A9D1DE0681C1BD0002D05D0FEF7DCFDA3
:102A50000499401AA84213D920680168FF22A132C4
:102A60009143016020688168490849008160202005
:102A700060346072A07200202072032005B0F0BDA7
:102A80002068C1693046884304D00020B842D9D0BC
:102A90000020F3E70120F9E710B50248FFF710FA2C
:102AA00010BD0000EC0000202021020C01D01021FC
:102AB0001046020A01D010460839020901D010461A
:102AC000091F820801D01046891E420801D0881EC5
:102AD0007047081A7047F0B4040C8BB2264682B2D5
:102AE0005E430D0C1046370C584336048019002104
:102AF000794116466E43370C3604801979412646D3
:102B00006E438919F0BC704730B47446641E257852
:102B1000641CAB4200D21D46635D5B00E31830BC11
:102B2000184700004900CA020243100000D00420E8
:102B30004A0D01D001221043044A490D914201D1AE
:102B400002210843012800D105207047FF0700003B
:102B5000F7B596B014460021A160D160179909918C
:102B60004D00CD496D088D4205DC179961602060EC
:102B7000002019B0F0BDC949C94E8D4238DAD327BB
:102B800009997F050029C74A1799334617DDFDF7D4
:102B900082FCB54206D0C44AC44BFDF77CFC6160A0
:102BA000206009E03A46C14BFDF775FCC04AC14BB5
:102BB000FDF771FC61602060012019B0F0BDFDF7E8
:102BC000C5FBB54206D0B84AB84BFDF7BFFB616004
:102BD000206009E03A46B54BFDF7B8FBB44AB54B67
:102BE000FDF7B4FB616020600020C04319B0F0BD68
:102BF000B1498D42179977DC490049080746AF4A29
:102C0000AF4B0491FDF756FC0022AE4BFDF79EFB47
:102C1000FDF78EFE0A90FDF777FEA24A3346039138
:102C20000290FDF747FC3A46049BFDF73AFC064646
:102C30000F469D4A9D4B03990298FDF73BFC2A0DD8
:102C400001250C9232463B46FDF72BFC616020606B
:102C5000032D39D04800410D0C98401A69016918BC
:102C60001139814230DA98492801794408960D904B
:102C7000081804974368026803990298FDF71AFC44
:102C800002460B460791069004990898FDF703FC4D
:102C900006460F46049B089AFDF703FC079B069A1D
:102CA000FDF7F9FB05918949049079440D98401886
:102CB000C368826803990298FDF7FCFB059B049AA0
:102CC000FDF7E9FB6D1CBDE70998002809DA012230
:102CD0006068D207504060600A9819B04042F0BD69
:102CE00002E00A9819B0F0BD09030122090B120590
:102CF0000E9089181798109140007549400D4018A2
:102D00004111C006C00E0D9113902021081A149095
:102D10000020069005250790139800280D980CD0E8
:102D2000401982006B487844875813998F401018D7
:102D300041681498C1400F4304E04019810066487F
:102D40007844475810993846FFF7C5FE06460A9161
:102D500038460E99FFF7BFFE8A190A9B8A4201D2B4
:102D6000012100E00021C9188C46AF00694679189E
:102D70008B684E68C318834201D2012000E0002016
:102D800096193618002802D0964202D903E09642DE
:102D900001D2012000E00020624612184E60684611
:102DA0008B60C25128466D1E0028B5DC01210298B7
:102DB00049074018800F1390029805998000039EE0
:102DC000049D0B91FDF7A0FD074630460891FDF7E5
:102DD000E5FB1D22D243FDF781FD10900F9128469F
:102DE000FDF7DCFB3D22D243FDF778FD0E900D91FF
:102DF0000B98FDF7D3FB5D22D243FDF76FFD0B91DE
:102E00000C900D9B0E9AFDF7A1FA0F9B109AFDF7FF
:102E10009DFA3A46089BFDF799FA00250E463A4678
:102E20002846089BFDF737FB0F9B109AFDF733FBF5
:102E30000D9B0E9AFDF72FFB0B9B0C9AFDF731FBB8
:102E4000264A274BFDF736FB07460D91254A264BB0
:102E500031462846FDF72EFB3A460D9BFDF776FAE4
:102E60000F4615220C9092061D4B31462846FDF761
:102E700021FB3B460C9AFDF769FA179A002A05DAFE
:102E8000139A524213920122D2075140616020608E
:102E9000139819B0F0BD0000FB21E93F7CD9024036
:102EA000FB21F93F000040543163621A61B4D03D08
:102EB0007370032E8A19A33BFB21394183C8C96D66
:102EC000305FE43F0000E03FFA090000BA0900006B
:102ED0000BFCFFFF6E09000054090000182D44543C
:102EE000FB21F93D3326A611460B113CF0B51FB46A
:102EF0004E00F9207608800584B00F46864204DA39
:102F00000498FDF715FD002838D0049A3B4610467A
:102F10001946FDF7CFFA044602462C480D460B46EB
:102F20000621784400F05CF822462B46FDF7C2FAF1
:102F3000019100903946079B069A0498FDF7BAFA6A
:102F40000746029120462946019B009AFDF7B2FAF6
:102F50003A46029BFDF79FFA074600220091D243B2
:102F600020462946FDF7BAFC194A96420ADA3A4643
:102F7000009BFDF790FA0022164B23E00020154934
:102F800009B0F0BD144A964202DD0024134D03E05F
:102F900001225205B51A002422462B46FDF77BFA82
:102FA0000646019122462B4600200A49FDF773FA96
:102FB0000D4604463A463046009B0199FDF76BFAF0
:102FC00022462B46FDF76DFA09B0F0BD120700004E
:102FD0003333D33F0000F03F0000E93F0000D23F11
:102FE000F8B504464F1EC8000838211815461E467D
:102FF000086849683A4606239A4310D02A46334661
:10300000FDF758FA3A46D200083AA3181A687F1E0C
:103010005B68FDF79BF906223B469343EED1022FF6
:1030200023D0042F11D0062F2FD12A463346FDF787
:1030300041FAE36AA26AFDF789F92A463346FDF7A9
:1030400039FA636A226AFDF781F92A463346FDF7A9
:1030500031FAE369A269FDF779F92A463346FDF7AB
:1030600029FA63692269FDF771F92A463346FDF7AB
:1030700021FAE368A268FDF769F92A463346FDF7AD
:1030800019FA63682268FDF761F9F8BDF0B51FB45D
:10309000054648000C46F9214008890586B088425B
:1030A0000BDA28462146FFF73DFD042801D100F048
:1030B00071F8284621460BB0F0BD2A46234610463B
:1030C0001946FDF7F7F906460F462A462346FDF74F
:1030D000F1F900902548019132463B46052178449C
:1030E000FFF77EFF029010980391002829D0204A14
:1030F000204B01990098FDF7DDF904900591684691
:103100000FC8FDF7D7F9002201910090D243099929
:103110000898FDF7E3FB019B009AFDF7BCF93246E6
:103120003B46FDF7C7F9099B089AFDF7B4F9059BE3
:10313000049AFDF7B0F92A462346FDF7B2F90BB021
:10314000F0BD0B4630463946029AFDF7B3F9084AFE
:10315000084BFDF7FBF8019B009AFDF7ABF92A46F7
:103160002346FDF7F3F80BB0F0BD00004E0600005B
:10317000495555555555C5BF10B50122FDF7AEFB54
:1031800010BD002210B5134610461146FDF72EFB68
:1031900010BD0000034A10B500201107FDF79EFB8B
:1031A00010BD000001FDFFFF02E008C8121F08C1AA
:1031B000002AFAD170477047002001E001C1121FB8
:1031C000002AFBD1704700000149086070470000E9
:1031D00030000020890008188260704770B50446EE
:1031E000406880470146E078420702D02288521C9E
:1031F0002280C309C7228B420FD00623D841012366
:103200005B07C0181A23D84183065B0FE070032BBD
:1032100005D34006400EC90108431040E070C0B21B
:103220004107490F00250B00FFF76EFC06042248FA
:1032300080219821C1094006C00F8142A07812D197
:103240000007000FA070A168002901D02046884720
:103250002580A07800090001401CA070E078C0081B
:10326000C000401C14E00007000F8030A07070BD4B
:10327000C1094006C00F81420CD0A0780007000FA2
:103280001030A070E168002962D0204688475FE0D6
:10329000E07070BD2088FF212D318842F9D9A078D7
:1032A0000007000F5030A070E169002901D02046CE
:1032B0008847E078C008C000401DE9E7C109400622
:1032C000C00F81421BD1A0780007000FA070A16839
:1032D000002901D020468847A0780421C8418906EA
:1032E00040181C21C841A0702169002901D0204646
:1032F00088472580E078C008C000C01CC8E7208847
:103300003C28C6D9A0780007000F012802D0022867
:1033100004D039E03030A070616902E04030A07024
:10332000A169002930D0204688472DE0C109400618
:10333000C00F8142ADD0A0780007000F1030A07000
:10334000E168002901D02046884720883C281BD20C
:103350002580E078C008C000801C99E7C1094006BC
:10336000C00F8142A07809D10007000F6030A07023
:10337000216A00298DD02046884770BD0007000FC4
:103380001030A070E168CCE7E078C008C0007FE7AB
:1033900070B50D46164604462821FCF7F7FEA078C6
:1033A0000007000F8030A0706560A847C101E07879
:1033B0004006400E0843BF210840F107490E08436C
:1033C000E07070BD074A11680B4605E0814202D1EA
:1033D0000020C0437047496A0029F7D1436210605A
:1033E000002070470000002010B50548046803E085
:1033F0002046FFF7F3FE646A002CF9D110BD0000EF
:103400000000002000B54A00224B520887B09A42C3
:1034100002DC0022134625E01F4B9A4208D1002807
:1034200008D10120FFF7D0FEFFF7ABFE07B000BDCB
:103430009A4203DBFFF7A0FE07B000BD02AAFFF728
:1034400087FB8107890F0BD0012001290ED00229AB
:1034500016D0009002A80FC8FFF718FE07B000BDF5
:1034600002A80FC8FFF742FD07B000BD009002A8F8
:103470000FC8FFF70BFE0122D207514007B000BD75
:1034800002A80FC8FFF732FD0122D207514007B052
:1034900000BD0000FB21E93F0000F07FF8B50746C2
:1034A0001D460C461046FCF7CDFE06460120A840FE
:1034B000401EFDF767F8054621463846FCF7C2FE78
:1034C0002946FCF7C7FE3146FCF701FFFDF774F80B
:1034D00080B2F8BD0349002000220856D2430A708A
:1034E0007047000004000020034901200022085614
:1034F000D2434A70704700000400002008B5FEF770
:1035000091F8FFF731F8FEF7D3FEFEF7BDFEFEF7A8
:1035100099FEFEF725FFFEF73DFFFDF751FAFDF797
:10352000BBFA3248FEF708FC1B26314D314CFEF742
:1035300077FE68460670FFF7CDFF6070FFF7D4FF97
:10354000A0706178032906D0042813D005281BD069
:10355000032833D025E02B46012269462648FEF792
:10356000E6FD6320694608702B4601222248FEF7DB
:10357000DEFD16E02B46012269461F48FEF7D7FD07
:10358000FEF78AFF012008E02B46012269461A480F
:10359000FEF7CDFDFEF780FF022020700A20FDF728
:1035A00077FF2078002815D0FEF728FE2078012824
:1035B00017D00228BBD1FEF795FFB8E7FEF78CFFC6
:1035C0006420FDF765FFFEF787FF6420FDF760FFCD
:1035D00000202070092000222021C006FEF70DF8EF
:1035E000A5E7FEF7F3FE2070A1E70000AC00002085
:1035F000FFFF000006000020EC00002010B50221B3
:103600000148FDF7F1FF10BD0004004810B5092086
:103610004021C006FDF7E8FF10BD000000000000DB
:10362000000001020304060708090000000001026F
:1036300003040000000000004C5555555555A53FAA
:103640007751C1166CC156BF9015CB19A001FA3E37
:10365000AD529C804F7E92BEC4B1B4BD9EEE213E61
:10366000D43888BEE9FAA8BD00004054FB21F93FD8
:103670003163621A61B4D03D0000601A61B4D03D7C
:103680007370032E8A19A33B0000002E8A19A33BF6
:10369000C14920259A837B3900000000000000000A
:1036A0006E83F9A22915444ED15727FCC0DD34F5AD
:1036B000999562DB4190433CAB6351FE61C5BBDE33
:1036C0003A6E24B7E0D24D42EA2E49061C92D10947
:1036D0001CEB1DFE3EA729B1F53582E88444BB2EC4
:1036E00026709CE9417E5FB439D69139F439538311
:1036F0008B5F849C3B28F9BDFF97F81F0F9805DE70
:103700008B112FEF1F6D0A5ACF7E366DB709CB276D
:10371000663F464F2DEA5F9EC7BA27757BF1E5EB02
:10372000F739073DEA92528AB15FFB6B085D8D1F46
:10373000A6F810111111813FD561C119A0012ABF4E
:103740007DFEB157E31DC73EEB9C2B8AE6E55ABED2
:103750007CD5CF5A3AD9E53D7837000800000020E3
:1037600034000000A8310008AC3700083400002005
:10377000B4050000B831000800000000FFFF00FFA2
:10378000FF0000000000000000000000000000003A
:103790000000000000000000000000000000000029
:0C37A0000000000000127A000000000091
:04000005080000C12E
:00000001FF
